:020000040800F2
:100000000028002025510008795000087B50000886
:100010007D5000087F50000881500008000000005B
:1000200000000000000000000000000083500008F5
:100030008550000800000000875000088950000823
:100040006D5100086D5100086D5100086D51000898
:100050006D5100086D5100086D5100086D51000888
:100060006D5100086D5100086D5100086D51000878
:100070006D5100086D5100086D5100086D51000868
:100080006D5100086D5100086D5100086D51000858
:100090006D5100086D5100086D5100086D51000848
:1000A0006D5100086D5100086D5100086D51000838
:1000B0006D5100086D510008000000006D510008EE
:1000C0006D51000800000000000000006D510008A4
:1000D000000000006D5100086D5100080000000094
:1000E0006D5100086D5100086D51000800000000BE
:1000F0000000000000000000000000000000000000
:0C01000000000000000000005FF808F1A3
:10010C0010B5054C237833B9044B13B10448AFF345
:10011C0000800123237010BD8C0000200000000023
:10012C00E859000808B5034B1BB103490348AFF36A
:10013C00008008BD0000000090000020E859000875
:10014C0081F0004102E000BF83F0004330B54FEA7C
:10015C0041044FEA430594EA050F08BF90EA020FE9
:10016C001FBF54EA000C55EA020C7FEA645C7FEA7C
:10017C00655C00F0E2804FEA5454D4EB5555B8BF9F
:10018C006D420CDD2C4480EA020281EA030382EA10
:10019C00000083EA010180EA020281EA0303362DA2
:1001AC0088BF30BD11F0004F4FEA01314FF4801C75
:1001BC004CEA113102D0404261EB410113F0004F87
:1001CC004FEA03334CEA133302D0524263EB43033E
:1001DC0094EA050F00F0A780A4F10104D5F1200EDC
:1001EC000DDB02FA0EFC22FA05F2801841F1000137
:1001FC0003FA0EF2801843FA05F359410EE0A5F10B
:10020C0020050EF1200E012A03FA0EFC28BF4CF03B
:10021C00020C43FA05F3C01851EBE37101F00045F1
:10022C0007D54FF0000EDCF1000C7EEB00006EEBFE
:10023C000101B1F5801F1BD3B1F5001F0CD3490888
:10024C005FEA30004FEA3C0C04F101044FEA4452DF
:10025C0012F5800F80F09A80BCF1004F08BF5FEA66
:10026C00500C50F1000041EB045141EA050130BD46
:10027C005FEA4C0C404141EB010111F4801FA4F1E9
:10028C000104E9D191F0000F04BF01460020B1FA3E
:10029C0081F308BF2033A3F10B03B3F120020CDA76
:1002AC000C3208DD02F1140CC2F10C0201FA0CF054
:1002BC0021FA02F10CE002F11402D8BFC2F1200CB9
:1002CC0001FA02F120FA0CFCDCBF41EA0C0190406F
:1002DC00E41AA2BF01EB0451294330BD6FEA0404B8
:1002EC001F3C1CDA0C340EDC04F11404C4F12002A3
:1002FC0020FA04F001FA02F340EA030021FA04F3B5
:10030C0045EA030130BDC4F10C04C4F1200220FA0B
:10031C0002F001FA04F340EA0300294630BD21FA49
:10032C0004F0294630BD94F0000F83F4801306BF0F
:10033C0081F480110134013D4EE77FEA645C18BF03
:10034C007FEA655C29D094EA050F08BF90EA020F9A
:10035C0005D054EA000C04BF1946104630BD91EA92
:10036C00030F1EBF0021002030BD5FEA545C05D195
:10037C004000494128BF41F0004130BD14F58004D4
:10038C003CBF01F5801130BD01F0004545F0FE4148
:10039C0041F470014FF0000030BD7FEA645C1ABF7D
:1003AC00194610467FEA655C1CBF0B46024650EAB4
:1003BC00013406BF52EA033591EA030F41F40021E0
:1003CC0030BD00BF90F0000F04BF0021704730B566
:1003DC004FF4806404F132044FF000054FF000013B
:1003EC0050E700BF90F0000F04BF0021704730B5FC
:1003FC004FF4806404F1320410F0004548BF4042D1
:10040C004FF000013EE700BF42004FEAE2014FEA25
:10041C0031014FEA02701FBF12F07F4393F07F4F00
:10042C0081F06051704732F07F4208BF704793F003
:10043C007F4F04BF41F40021704730B54FF4607416
:10044C0001F0004521F000411CE700BF50EA010219
:10045C0008BF704730B54FF000050AE050EA0102C2
:10046C0008BF704730B511F0004502D5404261EB32
:10047C0041014FF4806404F132045FEA915C3FF473
:10048C00D8AE4FF003025FEADC0C18BF03325FEA10
:10049C00DC0C18BF033202EBDC02C2F1200300FAC1
:1004AC0003FC20FA02F001FA03FE40EA0E0021FAE6
:1004BC0002F11444BDE600BF70B54FF0FF0C4CF4D4
:1004CC00E06C1CEA11541DBF1CEA135594EA0C0F86
:1004DC0095EA0C0F00F0DEF82C4481EA030621EAC1
:1004EC004C5123EA4C5350EA013518BF52EA0335FC
:1004FC0041F4801143F4801338D0A0FB02CE4FF0AE
:10050C000005E1FB02E506F00042E0FB03E54FF0DD
:10051C000006E1FB03569CF0000F18BF4EF0010ED5
:10052C00A4F1FF04B6F5007F64F5407404D25FEAD1
:10053C004E0E6D4146EB060642EAC62141EA555184
:10054C004FEAC52040EA5E504FEACE2EB4F1FD0CC6
:10055C0088BFBCF5E06F1ED8BEF1004F08BF5FEA44
:10056C00500E50F1000041EB045170BD06F00046F6
:10057C0046EA010140EA020081EA0301B4EB5C04A3
:10058C00C2BFD4EB0C0541EA045170BD41F480119B
:10059C004FF0000E013C00F3AB8014F1360FDEBFC0
:1005AC00002001F0004170BDC4F10004203C35DA9C
:1005BC000C341BDC04F11404C4F1200500FA05F31F
:1005CC0020FA04F001FA05F240EA020001F00042C0
:1005DC0021F0004110EBD37021FA04F642EB060136
:1005EC005EEA430E08BF20EAD37070BDC4F10C0460
:1005FC00C4F1200500FA04F320FA05F001FA04F224
:10060C0040EA020001F0004110EBD37041F100010F
:10061C005EEA430E08BF20EAD37070BDC4F120051A
:10062C0000FA05F24EEA020E20FA04F301FA05F282
:10063C0043EA020321FA04F001F0004121FA04F22A
:10064C0020EA020000EBD3705EEA430E08BF20EAFA
:10065C00D37070BD94F0000F0FD101F00046400034
:10066C0041EB010111F4801F08BF013CF7D041EAB6
:10067C00060195F0000F18BF704703F000465200BA
:10068C0043EB030313F4801F08BF013DF7D043EA8B
:10069C000603704794EA0C0F0CEA135518BF95EA41
:1006AC000C0F0CD050EA410618BF52EA4306D1D1C8
:1006BC0081EA030101F000414FF0000070BD50EAE7
:1006CC00410606BF1046194652EA430619D094EA71
:1006DC000C0F02D150EA013613D195EA0C0F05D15B
:1006EC0052EA03361CBF104619460AD181EA0301AF
:1006FC0001F0004141F0FE4141F470014FF0000067
:10070C0070BD41F0FE4141F4780170BD70B54FF001
:10071C00FF0C4CF4E06C1CEA11541DBF1CEA135581
:10072C0094EA0C0F95EA0C0F00F0A7F8A4EB050463
:10073C0081EA030E52EA03354FEA013100F088805A
:10074C004FEA03334FF0805545EA131343EA126323
:10075C004FEA022245EA111545EA10654FEA0026D8
:10076C000EF000419D4208BF964244F1FD0404F591
:10077C00407402D25B084FEA3202B61A65EB0305ED
:10078C005B084FEA32024FF480104FF4002CB6EBAA
:10079C00020E75EB030E22BFB61A754640EA0C002A
:1007AC005B084FEA3202B6EB020E75EB030E22BF6A
:1007BC00B61A754640EA5C005B084FEA3202B6EBAB
:1007CC00020E75EB030E22BFB61A754640EA9C006A
:1007DC005B084FEA3202B6EB020E75EB030E22BF3A
:1007EC00B61A754640EADC0055EA060E18D04FEAF8
:1007FC00051545EA16754FEA06164FEAC30343EA98
:10080C0052734FEAC2025FEA1C1CC0D111F4801F64
:10081C000BD141EA00014FF000004FF0004CB6E75D
:10082C0011F4801F04BF01430020B4F1FD0C88BFFC
:10083C00BCF5E06F3FF6AFAEB5EB030C04BFB6EB07
:10084C00020C5FEA500C50F1000041EB045170BDFA
:10085C000EF0004E4EEA113114EB5C04C2BFD4EB27
:10086C000C0541EA045170BD41F480114FF0000EAB
:10087C00013C90E645EA060E8DE60CEA135594EA27
:10088C000C0F08BF95EA0C0F3FF43BAF94EA0C0F2A
:10089C000AD150EA01347FF434AF95EA0C0F7FF49F
:1008AC0025AF104619462CE795EA0C0F06D152EAF3
:1008BC0003353FF4FDAE1046194622E750EA4106D7
:1008CC0018BF52EA43067FF4C5AE50EA41047FF4E8
:1008DC000DAF52EA43057FF4EBAE12E74A0011D29A
:1008EC0012F5001211D20DD56FF47873B3EB62527E
:1008FC000ED44FEAC12343F0004343EA505323FA8A
:10090C0002F070474FF00000704750EA013002D1FE
:10091C004FF0FF3070474FF000007047034613F85C
:10092C00012B002AFBD1181A0138704710B5044668
:10093C000E4B18784FF47A73B3FBF0F30C4A106833
:10094C00B0FBF3F000F094F868B90F2C01D901203A
:10095C000AE0002221464FF0FF3000F055F8034B1F
:10096C005C60002000E0012010BD00BF00000020F2
:10097C000C00002008B5074A136843F010031360FD
:10098C00032000F02FF80020FFF7D0FF04F0BEFA90
:10099C00002008BD00200240034A1168034B1B785D
:1009AC000B441360704700BFF003002000000020D0
:1009BC00014B1868704700BFF003002038B504469F
:1009CC00FFF7F6FF0546B4F1FF3F02D0044B1B784E
:1009DC001C44FFF7EDFF401BA042FAD338BD00BF0B
:1009EC0000000020074AD36823F4E0631B041B0CAF
:1009FC00000200F4E060184340F0BF6040F40030A7
:100A0C00D060704700ED00E030B4174BDB68C3F3E7
:100A1C000223C3F10704042C28BF04241D1D062D3A
:100A2C0018D9033B4FF0FF3505FA04F421EA040111
:100A3C00994005FA03F322EA0303194300280BDB60
:100A4C000901C9B200F1604000F5614080F8001363
:100A5C0030BC70470023E5E700F00F000901C9B274
:100A6C00024B1954F4E700BF00ED00E014ED00E078
:100A7C000138B0F1807F0AD2064B5860064AF0214B
:100A8C0082F823100020986007221A60704701201A
:100A9C00704700BF10E000E000ED00E0F0B482B061
:100AAC000026324668E0002D00F09780012D00D121
:100ABC00CE68FF2B00F2A5808446FF2B00F2A480A9
:100ACC009500DCF800400F27AF4024EA070406FA33
:100ADC0005F52C43CCF800404C6814F0805F4AD0EC
:100AEC005C4CA56945F00105A561A46904F00104FD
:100AFC000194019C9508AF1C574C54F8274002F008
:100B0C000307BF004FF00F0C0CFA07FC24EA0C0C87
:100B1C00524CA0427ED004F58064A0427CD004F5F7
:100B2C008064A04274D00324BC4044EA0C04023517
:100B3C00494F47F825404C6814F4803F6ED0484D1F
:100B4C002C681C432C604C6814F4003F6CD0444D52
:100B5C006C681C436C604C6814F4801F6AD0404D68
:100B6C00AC681C43AC604C6814F4001F68D03C4D5E
:100B7C00EC682343EB6001320B6833FA02F465D066
:100B8C000124944023409C42F5D14D68122D2ED067
:100B9C0009D8022D28D086D9032D2ED0112D88D11D
:100BAC00CE68043685E72F4FBD4216D00CD92E4F98
:100BBC00BD4212D007F58037BD420ED0A7F5801785
:100BCC00BD427FF476AF08E0A7F58017BD4204D094
:100BDC0007F58037BD427FF46CAF8D687DB1012D78
:100BEC0008D04461082664E7CE68083661E7CE6811
:100BFC000C365EE7046108265BE7002659E70426FD
:100C0C0057E700F1040C58E7A2F10805AD0058E7CE
:100C1C00022489E7002487E7012485E7104D2C681E
:100C2C0024EA03042C608EE70D4D6C6824EA03045F
:100C3C006C6090E70A4DAC6824EA0304AC6092E760
:100C4C00074DEC6824EA0303EB6094E702B0F0BCB8
:100C5C00704700BF00100240000001400008014036
:100C6C0000040140000021100000311012B90904E9
:100C7C00016170470161704782B0084B1B68084ADC
:100C8C00A2FB03235B0A00FB03F0019000BF019B56
:100C9C005A1E0192002BF9D102B070470C000020B3
:100CAC00D34D6210002800F0F58170B582B0044677
:100CBC00036813F0010F2CD0AB4B5B6803F00C03F3
:100CCC00042B1DD0A84B5B6803F00C03082B12D02F
:100CDC006368B3F5803F41D0002B55D103F18043BD
:100CEC0003F504331A6822F480321A601A6822F46D
:100CFC0080221A6037E09C4B5B6813F4803FE7D08E
:100D0C00994B1B6813F4003F03D06368002B00F071
:100D1C00C381236813F0020F76D0934B5B6813F0FA
:100D2C000C0F5FD0904B5B6803F00C03082B54D076
:100D3C002369002B00F08A808C4B01221A60FFF78C
:100D4C0037FE0546884B1B6813F0020F75D1FFF771
:100D5C002FFE401B0228F5D90320A0E1824A13681C
:100D6C0043F480331360636843B3FFF721FE0546F9
:100D7C007D4B1B6813F4003FCBD1FFF719FE401BD2
:100D8C006428F5D903208AE1B3F5A02F09D0764B5E
:100D9C001A6822F480321A601A6822F480221A60CF
:100DAC00E1E703F18043A3F53C331A6842F4802257
:100DBC001A601A6842F480321A60D4E7FFF7F8FD23
:100DCC000546694B1B6813F4003FA2D0FFF7F0FDFA
:100DDC00401B6428F5D9032061E1634B5B6813F475
:100DEC00803FA5D1604B1B6813F0020F04D0236920
:100DFC00012B01D0012052E15B4A136823F0F80368
:100E0C00616943EAC1031360236813F0080F32D001
:100E1C00A369002B5BD0564B01221A60FFF7C8FD6B
:100E2C000546514B5B6A13F0020F21D1FFF7C0FD51
:100E3C00401B0228F5D9032031E14B4A136823F0FB
:100E4C00F803616943EAC1031360DDE7474B0022F5
:100E5C001A60FFF7ADFD0546434B1B6813F0020FFC
:100E6C00D2D0FFF7A5FD401B0228F5D9032016E1CF
:100E7C000120FFF701FF236813F0040F00F09880A6
:100E8C00394BDB6913F0805F33D1374BDA6942F0B1
:100E9C008052DA61DB6903F080530193019B0125D9
:100EAC00344B1B6813F4807F25D0E368012B36D0BC
:100EBC00002B4CD103F1804303F504331A6A22F062
:100ECC0001021A621A6A22F004021A622CE0284B00
:100EDC0000221A60FFF76CFD0546234B5B6A13F08A
:100EEC00020FC8D0FFF764FD401B0228F5D9032080
:100EFC00D5E00025D4E71F4A136843F480731360D0
:100F0C00FFF756FD06461B4B1B6813F4807FCCD1B4
:100F1C00FFF74EFD801B6428F5D90320BFE0124A71
:100F2C00136A43F001031362E3687BB3FFF740FDE0
:100F3C0006460D4B1B6A13F0020F38D1FFF738FD34
:100F4C00801B41F288339842F3D90320A7E0052B8C
:100F5C0012D0054B1A6A22F001021A621A6A22F0A8
:100F6C0004021A62E0E700BF001002400000424297
:100F7C0080044242007000404C4B1A6A42F004025A
:100F8C001A621A6A42F001021A62CDE7FFF710FDED
:100F9C000646464B1B6A13F0020F08D0FFF708FDFC
:100FAC00801B41F288339842F3D9032077E0E5B9EE
:100FBC00E369002B72D03D4A526802F00C02082AF9
:100FCC0056D0022B17D03A4B00221A60FFF7F0FCD8
:100FDC000446364B1B6813F0007F47D0FFF7E8FC44
:100FEC00001B0228F5D9032059E0304AD36923F0BD
:100FFC008053D361DCE72E4B00221A60FFF7D8FC3C
:10100C0005462A4B1B6813F0007F06D0FFF7D0FC77
:10101C00401B0228F5D9032041E0236AB3F5803F39
:10102C001AD022494B6823F47413226A606A024373
:10103C0013434B601E4B01221A60FFF7B9FC0446A8
:10104C001A4B1B6813F0007F0ED1FFF7B1FC001B8D
:10105C000228F5D9032022E0144A536823F4003304
:10106C00A1680B435360DCE7002018E0002016E079
:10107C00012B16D00D4B5B6803F48031226A914230
:10108C0001D001200BE003F47013626A93420AD082
:10109C00012004E001207047012000E0002002B094
:1010AC0070BD0120FBE70020F9E700BF00100240F3
:1010BC006000424210B487B0164C94E80F000DF15A
:1010CC00180C0CE90F00238AADF80430124B5B6846
:1010DC0003F00C02082A1AD1C3F38342624412F8BB
:1010EC00102C13F4803F05D10C4800FB02F007B024
:1010FC0010BC7047084B5B68C3F34043634413F860
:10110C00143C074800FB02F0B0FBF3F0EFE7044897
:10111C00EDE700BF005A00080010024000093D0036
:10112C0000127A00002800F0A38070B50446524BE0
:10113C001B6803F007038B420CD24F4A136823F051
:10114C0007030B431360136803F007038B4201D0B2
:10115C00012070BD236813F0020F17D013F0040F99
:10116C0004D0464A536843F4E0635360236813F099
:10117C00080F04D0414A536843F4605353603F4A0C
:10118C00536823F0F003A068034353600D462368B3
:10119C0013F0010F31D06368012B20D0022B25D026
:1011AC00364A126812F0020F64D034494A6822F0B1
:1011BC00030213434B60FFF7FBFB06462F4B5B68A8
:1011CC0003F00C036268B3EB820F16D0FFF7F0FB51
:1011DC00801B41F288339842F0D90320B9E7274AA3
:1011EC00126812F4003FE0D10120B2E7234A1268E2
:1011FC0012F0007FD9D10120ABE71F4B1B6803F025
:10120C000703AB420CD91C4A136823F007032B438A
:10121C001360136803F00703AB4201D0012098E779
:10122C00236813F0040F06D0144A536823F4E063C8
:10123C00E1680B435360236813F0080F07D00F4A83
:10124C00536823F46053216943EAC1035360FFF7E9
:10125C0031FF0A4B5B68C3F30313094AD35CD840D4
:10126C00084B1860084B1868FFF760FB002070E70C
:10127C000120704701206CE7002002400010024062
:10128C00945F00080C00002004000020014B18683B
:10129C00704700BF0C00002008B5FFF7F7FF044BA8
:1012AC005B68C3F30223034AD35CD84008BD00BF7C
:1012BC0000100240A45F000808B5FFF7E7FF044BDD
:1012CC005B68C3F3C223034AD35CD84008BD00BF9C
:1012DC0000100240A45F00082DE9F04383B00446DF
:1012EC000F4616461D46FFF763FB0A9B181A00EBC8
:1012FC000508FFF75DFB81462A4B1B68C3F3CB3314
:10130C0008FB03F3019323689B6837EA03030CBFC4
:10131C0001230023B34240D0B5F1FF3FF3D0FFF7D8
:10132C0047FBA0EB090040450AD2B8F1000F07D0EB
:10133C00019B0BB94FF00008019B013B0193E2E7C5
:10134C002268536823F0E00353606368B3F5827F2F
:10135C000BD0A36AB3F5005F14D0012384F851308D
:10136C00002384F85030032018E0A368B3F5004F35
:10137C0002D0B3F5806FECD12268136823F04003E0
:10138C001360E6E72268136823F4005313602268A5
:10139C00136843F400531360DFE7002003B0BDE88B
:1013AC00F08300BF0C00002010B582B00446009200
:1013BC000B4600228021FFF78FFF034610B9184619
:1013CC0002B010BD636D43F0200363650323F6E7A1
:1013DC00002856D010B50446436A33B94368B3F5B8
:1013EC00827F05D00023C36102E0002303614361C7
:1013FC000023A36294F85130002B3CD0022384F8D4
:10140C0051302268136823F040031360636803F4BF
:10141C008273A26802F404421343E26802F400628D
:10142C001343226902F002021343626902F00102C3
:10143C001343A26902F400721343E26902F038020A
:10144C001343226A02F080021343A26A02F4005290
:10145C00216813430B60638B226803F00403536011
:10146C002268D36923F40063D361002060650123F3
:10147C0084F8513010BD84F85030204603F068FDDC
:10148C00BCE7012070472DE9F04182B090F8504044
:10149C00012C00F0C8801D461746884604460123DF
:1014AC0080F85030FFF784FA064694F85130DBB2DE
:1014BC00012B09D00220012384F85130002384F839
:1014CC00503002B0BDE8F081B8F1000F00F09D8003
:1014DC00002F00F09C80032384F8513000236365B7
:1014EC00C4F83080A786E786A363A387E387636489
:1014FC002364A368B3F5004F1CD023681A6812F05C
:10150C00400F03D11A6842F040021A60E368B3F549
:10151C00006F1AD063680BB1012F4ED1226B236878
:10152C0012781A73236B01332363E38E013B9BB256
:10153C00E38642E02268136823F0400313602268BC
:10154C00136843F480431360D7E763680BB1012F32
:10155C0015D1226B23681288DA60236B0233236364
:10156C00E38E013B9BB2E38609E0FFF721FA801B77
:10157C00A84202D3B5F1FF3F4BD1002D4BD0E38EE7
:10158C009BB2002B2CD023689A6812F0020FECD07F
:10159C00226B1288DA60236B02332363E38E013BE8
:1015AC009BB2E386EBE7FFF703FA801BA84202D35A
:1015BC00B5F1FF3F31D1002D31D0E38E9BB27BB121
:1015CC0023689A6812F0020FEDD0226B12781A730E
:1015DC00236B01332363E38E013B9BB2E386ECE781
:1015EC00324629462046FFF7DFFE08B1202363650B
:1015FC00A36833B901932368DA6801929B6801935D
:10160C00019B636D6BB9002055E7012053E7012066
:10161C0051E703204FE703204DE703204BE703205E
:10162C0049E7012047E702204BE72DE9F04383B05F
:10163C00DDF8288090F85040012C00F00B811D46FD
:10164C0017460E460446012380F85030FFF7B0F9D8
:10165C00814694F85100C0B26368012815D0B3F5E7
:10166C00827F0AD00223012284F85120002284F8C0
:10167C005020184603B0BDE8F083A368002B40F05F
:10168C00DB80042801D00223EDE7002E00F0D68089
:10169C00002F00F0D580002D00F0D48094F851304C
:1016AC00DBB2042B02D0052384F851300023636590
:1016BC00A763E587A5872663E586A586236463640F
:1016CC0023681A6812F0400F03D11A6842F04002E6
:1016DC001A60E368B3F5006F10D063680BB1012D8D
:1016EC000AD1226B236812781A73236B013323639C
:1016FC00E38E013B9BB2E386012569E063680BB185
:10170C00012D0AD1226B23681288DA60236B023315
:10171C002363E38E013B9BB2E38601251BE0236828
:10172C009A6812F0010F0DD0E28F92B252B1DA68C2
:10173C00A36B1A80A36B0233A363E38F013B9BB2B1
:10174C00E3870125FFF734F9A0EB0900404502D3EC
:10175C00B8F1FF3F78D1E38E9BB21BB9E38F9BB2FC
:10176C00002B52D023689A6812F0020FD7D0E28E69
:10177C0092B2002AD3D0002DD1D0226B1288DA601D
:10178C00236B02332363E38E013B9BB2E38600257C
:10179C00C5E723689A6812F0010F0DD0E28F92B260
:1017AC0052B1DA68A36B1A70A36B0133A363E38F96
:1017BC00013B9BB2E3870125FFF7FAF8A0EB090088
:1017CC00404502D3B8F1FF3F40D1B8F1000F3FD0F4
:1017DC00E38E9BB213B9E38F9BB2B3B123689A68C3
:1017EC0012F0020FD5D0E28E92B2002AD1D0002D89
:1017FC00CFD0226B12781A73236B01332363E38EE1
:10180C00013B9BB2E3860025C3E74A46414620468E
:10181C00FFF7CAFD034618B120236365012322E7B5
:10182C00A268002A7FF41FAF01922268D16801914F
:10183C0092680192019A16E7022314E7012312E73A
:10184C00012310E701230EE703230CE703230AE728
:10185C00032308E702230CE738B504460268136932
:10186C0023F44053C1680B4313618368026913432B
:10187C0042691A430168CB6823F4B05323F00C037C
:10188C001343CB600268536923F4407381690B43A3
:10189C0053610268124B9A421FD0FFF7FDFC00EB1C
:1018AC00800000EB800063689B00B0FBF3F00D4DF3
:1018BC00A5FB00325109642202FB110213013233E1
:1018CC00A5FB03235B0903F0F00202EB011203F00A
:1018DC000F03216813448B6038BDFFF7EDFCDEE786
:1018EC00003801401F85EB512DE9F04105460F46AC
:1018FC0016469846069C2B681B6837EA03030CBFF8
:10190C0001230023B3421DD1B4F1FF3FF3D02CB11E
:10191C00FFF74EF8A0EB0800A042ECD92A68D36878
:10192C0023F4D073D3602A68536923F00103536105
:10193C00202385F83D3085F83E30002385F83C3077
:10194C00032000E00020BDE8F08158B310B5044638
:10195C0090F83D300BB3242384F83D302268D368D3
:10196C0023F40053D3602046FFF776FF22681369F7
:10197C0023F4904313612268536923F02A035361C3
:10198C002268D36843F40053D360002020642023E2
:10199C0084F83D3084F83E3010BD80F83C3003F0C4
:1019AC0011FBD8E7012070472DE9F04182B01E46AB
:1019BC0090F83D30DBB2202B54D104460D469046B6
:1019CC00002954D0002A54D090F83C30012B52D02E
:1019DC00012380F83C3000230364212380F83D3040
:1019EC00FEF7E6FF0746A4F82480A4F82680A36837
:1019FC00B3F5805F05D04FF00008002384F83C302D
:101A0C0011E0236913B14FF00008F6E7A846002552
:101A1C00F3E738F8023B2268C3F308035360E38C06
:101A2C00013B9BB2E384E38C9BB273B100963B46C3
:101A3C00002280212046FFF757FFF0B9002DE8D097
:101A4C0015F8012B23685A60E9E700963B46002203
:101A5C0040212046FFF748FF034680B9202284F836
:101A6C003D2000E00223184602B0BDE8F0810123BE
:101A7C00F9E70123F7E70223F5E70323F3E7032351
:101A8C00F1E7000008B5044B03EB80025268526882
:101A9C000344187A904708BDC802002008B5084BCB
:101AAC001B5C53B9064B01221A5403EB800252689B
:101ABC0012681844007A904708BD0020FCE700BF6C
:101ACC00C802002038B5044C04EB80056D68AD6885
:101ADC000444207AA84738BDC802002038B5044C0D
:101AEC0004EB80056D68ED680444207AA84738BD86
:101AFC00C802002010B5044B03EB80046468246911
:101B0C000344187AA04710BDC802002004E00A78EC
:101B1C000270013101301A46531E002AF7D170476A
:101B2C0002E0017001301A46531E002AF9D17047A9
:101B3C0070B40346002001E029463346541E32B1EE
:101B4C005E1C18784D1C0B782246C01AF4D070BC61
:101B5C00704700E0013003780BB18B42FAD1184684
:101B6C007047000030B400252B4601E001250133FD
:101B7C00012B1ED803EB4304A2001C4CA258002AD4
:101B8C00F4D0D0F80044A242F1D103EB430294000C
:101B9C00164A22445468D0F808249442E7D103EB47
:101BAC0043029400114A22441489B0F8062494424A
:101BBC00DDD1022B0CD0B1B903EB43039A000B4BD4
:101BCC0013445B89B3F5807F07D0002030BC70478D
:101BDC002DB9022905D10020F8E71020F6E70020E6
:101BEC00F4E71220F2E71020F0E700BFA800002075
:101BFC00002000E00130012806D800EB40029300E1
:101C0C00034AD358002BF5D1023818BF0120704776
:101C1C00A800002070B4002300E00133012B1CD875
:101C2C0003EB4304A2002E4CA458D0F80024944299
:101C3C00F3D103EB43029400294A22445468D0F8B0
:101C4C0008249442E9D103EB43029400244A224431
:101C5C001489B0F806249442DFD1022B37D039B165
:101C6C0003EB430290001E4A02445289002A35D1EC
:101C7C0079BB03EB43029100194A0A4451890131A3
:101C8C0089B203EB43029000154A02445181581C5F
:101C9C0070BC70470133012B06D803EB4304A20040
:101CAC000F4CA258002AF5D1022B15D0D0F80054B5
:101CBC000B4E5A001A44940032193551D0F808448E
:101CCC005460B0F80604108100205081C7E700234F
:101CDC00E1E74FF48071D4E70020D9E70020D7E783
:101CEC00A80000200138012818D800EB40039A0006
:101CFC000C4B13445B89B3F5807F03D01BB1013BC4
:101D0C009BB200E0002300EB40029100054A0A441C
:101D1C0053812BB90020034A505070470220704762
:101D2C0000207047A80000200023012B13D810B40A
:101D3C0003EB43018A0008498A58824204D00133DC
:101D4C00012BF5D910BC704703EB43018A00024903
:101D5C0000248C50F3E77047A8000020D0F824240E
:101D6C000432D0F80004B0F80A34B1FBF3F190F867
:101D7C000234B1FBF3F1106830B1814202D3091A7D
:101D8C000832F8E7506808447047CA7E8B7E43EAF5
:101D9C00022390F80024032A01D018467047487D8E
:101DAC000A7D42EA002243EA0243F6E78176C1F358
:101DBC000723C376090C0175090A417570470000A9
:101DCC00F0B40C7804F03F04013C04EB440304EB46
:101DDC0083040127002206E04FF6FF75AB421FD1AA
:101DEC0001320C2A0FD8124B9D5C6B1CCE5C4B5DE8
:101DFC0043EA0623002FEFD0FE2C0FD820F8143026
:101E0C001F460134ECE70B7813F0400F0AD0FE2C80
:101E1C000BD8002320F81430012004E0002002E04D
:101E2C00002000E00120F0BC70470020FBE700BF61
:101E3C00145A0008F0B44B730F23CB7200250D73AA
:101E4C008D76CD76561E06EB460306EB83062B46A7
:101E5C0002E001350C2D11D84FF6FF74A34202D0CD
:101E6C0030F8163001360B4C645D0B5501341F0AEB
:101E7C000F55002BEDD14FF6FF73EAE74FF6FF74C9
:101E8C00A34202D030F816300BB942F040020A706F
:101E9C00F0BC7047145A000870B582B0054616465F
:101EAC001C460B22FFF732FE052C11D807221DE031
:101EBC0001320F2A0CD803F0010101EB44045B083A
:101ECC0014F4803FF4D084F4883484F02104EFE7D8
:101EDC003388002BEAD002360022EAE7531E02A810
:101EEC00024402F8081C240909D01A4604F00F0316
:101EFC0003F130013929F1D903F13701EEE77E21E5
:101F0C0002461A4402F8081C00E001349C4209D233
:101F1C002A5D202AF9D105E02021621C2955072AC7
:101F2C0008D81446072BF7D802AA1A4412F8081C32
:101F3C000133F2E702B070BD01460B220020C30151
:101F4C0043EA5003DBB208780344D8B20131013ABA
:101F5C00F5D17047016809B10A4603E04FF0FF3331
:101F6C0008E0013213781F2B01D93A2BF9D13A2B07
:101F7C0002D000231846704710B44C1C0B78303B31
:101F8C00092B07D8A24208D153B901320260184676
:101F9C0010BC70474FF0FF33F9E74FF0FF33F6E713
:101FAC004FF0FF33F3E7F8B590F804340BB9002089
:101FBC00F8BD0446D0F82C54074601232A460146A6
:101FCC0090F80104FFF78AFDD8B9002384F8043493
:101FDC00D4F82034EB1AD4F81824934213D294F882
:101FEC000364012E0BD9D4F818341D4401232A465E
:101FFC00394694F80104FFF771FD013EF1E700202A
:10200C00D6E70120D4E70020D2E770B5D0F82C3405
:10201C008B4213D004460D46FFF7C5FF064670B938
:10202C0001232A46214694F80104FFF74BFD10B119
:10203C0001264FF0FF35C4F82C5400E00026304642
:10204C0070BD000010B50446002380F804344FF036
:10205C00FF33C0F82C34FFF7D8FF88BB94F8FF216E
:10206C0094F8FE3143EA02231BB2184A934229D159
:10207C0094F8392094F838301B0443EA026394F83E
:10208C00372043EA022394F83620134323F07F438E
:10209C000F4A934218D094F8552094F854301B04EE
:1020AC0043EA026394F8532043EA022394F8522043
:1020BC00134323F07F43064A934204D0012002E0ED
:1020CC00032000E0022010BD0020FCE755AAFFFF12
:1020DC0046415400B8B108B5D0F80034ABB193F810
:1020EC000014A1B1B3F80614B0F80424914201D045
:1020FC00092008BD93F80104FFF7C4FC10F0010F90
:10210C0007D10020F5E7092070470920F1E70920E5
:10211C00EFE70920EDE700002DE9F04184B0064619
:10212C001746002303600846FFF714FF051EC0F294
:10213C00AD81AC4B03EB85039C69002C00F0AA81AC
:10214C00346094F800347BB194F80104FFF79AFCE6
:10215C0010F0010F08D1002F00F09E8110F0040F39
:10216C0040F09C81002092E1002384F80034E8B216
:10217C0084F80104FFF792FC10F0010F40F09081FD
:10218C001FB110F0040F40F08D8104F20A420221BD
:10219C0094F80104FFF7AEFC002840F08581B4F8F8
:1021AC000A34B3F5007FC0F08181B3F5806F01D99B
:1021BC0001206CE100212046FFF744FF0346012873
:1021CC0000F0B1800026032B00F07281002B40F050
:1021DC007181227BE37A43EA0223B4F80A04834236
:1021EC0040F06A81E27DA37D53EA02230DD194F87D
:1021FC00272094F826301B0443EA026394F8252028
:10220C0043EA022394F824201343C4F81834217CA5
:10221C0084F803144A1ED2B2012A00F24F8103FB48
:10222C0001F1657B84F80254002D00F049816A1E8F
:10223C00154240F04781A27C677C47EA0227A4F84C
:10224C0008744FEA501EB7FBFEF20EFB127292B2EC
:10225C00002A40F0398194F814C0E27C52EA0C2236
:10226C000ED194F823C094F82220120442EA0C6296
:10227C0094F821C042EA0C2294F820C042EA0C02E5
:10228C0094F80F8094F80EC05CEA082C00F01E81C4
:10229C000CEB0108B7FBFEFEC6447245C0F018817A
:1022AC00A2EB0E02B2FBF5F2002A00F0138140F60D
:1022BC00F575AA4250D801254FF6F578424500D95C
:1022CC0003250232C4F81424C4F81C64B444C4F8C2
:1022DC0020C4B644C4F828E4032D3FD0002F00F0EE
:1022EC00FD806144C4F82414022D74D1520049E0DD
:1022FC00002304AA02EB810242F8103C01310329AD
:10230C0013D80B0103F5DF7323441A79002AEFD09D
:10231C00D87A9A7A120442EA0062587A42EA002287
:10232C001B7A1343E5E70021E9E700250BE0314672
:10233C002046FFF787FE034600283FF444AF0135E3
:10234C00032D3FF640AF04AB03EB850353F8106C41
:10235C00002EECD10223F2E70225ADE7002F40F06E
:10236C00BB8094F82F7094F82E10090441EA076191
:10237C0094F82D7041EA072194F82C703943C4F875
:10238C00241492000244013AB2FBF0F0984200F29D
:10239C00A7804FF0FF33C4F81034C4F80C348023FA
:1023AC0084F80534032D08D194F8312094F830309A
:1023BC0043EA02231BB2012B16D084F80054094ABD
:1023CC00938B01339BB29383A4F806342046FFF71A
:1023DC00ABFC00205BE002EB420102F0010202EBDD
:1023EC005102CFE7A8000020711C2046FFF70DFE1C
:1023FC000028E2D1002384F8053494F8FF2194F8E6
:10240C00FE3143EA02231BB2364A9342D5D1E2781D
:10241C00A3781B0443EA0263627843EA022322781E
:10242C001343314A9342C8D194F8E72194F8E6312A
:10243C001B0443EA026394F8E52143EA022394F86F
:10244C00E4211343294A9342B7D194F8EB2194F831
:10245C00EA311B0443EA026394F8E92143EA0223BC
:10246C0094F8E8211343C4F8103494F8EF2194F84D
:10247C00EE311B0443EA026394F8ED2143EA022394
:10248C0094F8EC211343C4F80C3496E70B2004B0F9
:10249C00BDE8F0810C20FAE70020F8E70A20F6E707
:1024AC000320F4E70A20F2E70120F0E70120EEE731
:1024BC000120ECE70D20EAE70D20E8E70D20E6E728
:1024CC000D20E4E70D20E2E70D20E0E70D20DEE72C
:1024DC000D20DCE70D20DAE70D20D8E70D20D6E73C
:1024EC000D20D4E755AAFFFF52526141727241612F
:1024FC0038B50446FFF757FD054658B994F8003433
:10250C00032B09D00022114694F80104FFF7F2FACC
:10251C0000B10125284638BD94F80534012BF1D1C2
:10252C00B4F80A2400212046FFF7FAFA552384F860
:10253C00FE31AA2384F8FF31522323706370612388
:10254C00A3704122E270722184F8E41184F8E51141
:10255C0084F8E62184F8E731D4F8103484F8E831B3
:10256C00C3F3072284F8E921C3F3074284F8EA2174
:10257C001B0E84F8EB31D4F80C3484F8EC31C3F333
:10258C00072284F8ED21C3F3074284F8EE211B0ED9
:10259C0084F8EF31D4F81C240132C4F82C24012324
:1025AC00214694F80104FFF799FA002384F80534C6
:1025BC00A8E700002DE9F04F83B080460F460E6867
:1025CC0000E0013633782F2BFBD05C2BF9D0D8F8F8
:1025DC002054002402E025F81490544604F1010A1A
:1025EC00305D1F2817D92F2815D05C2813D0FE2C4E
:1025FC0000F2E580012101F021FE8146002800F067
:10260C00E0807F28E7D801467048FFF7A2FA00283F
:10261C00E1D006208BE056443E601F2801D80427E9
:10262C0002E0002700E0013C44B104F10043013B0F
:10263C0035F81330202BF6D02E2BF4D0002C00F0D4
:10264C00C280002625F814600B222021D8F818042B
:10265C00FFF766FA00E0013635F81620202AFAD08A
:10266C002E2AF8D01EB147F0030700E0013C6CB1F4
:10267C0004F10042013A35F812202E2AF6D14FF01F
:10268C00080B4FF0000ACDF804A00AE0A2464FF068
:10269C00080B0023019304E04C450BD047F00307D3
:1026AC004E4606F1010935F81660FEB1202EF5D024
:1026BC002E2EF1D0DA4510D24C450ED07F2E46D8B6
:1026CC00002E52D147F003075F26D8F8183403F8D0
:1026DC000A604E460AF1010AE3E7BBF10B0F29D061
:1026EC004C4501D047F003074C4526D2D8F8183496
:1026FC001A78E52A55D0BBF1080F55D0019B03F091
:10270C000C020C2A03D003F00303032B01D147F076
:10271C00020717F0020F06D1019B03F00303012BF4
:10272C0047D0042A48D0D8F81834DF72002003B000
:10273C00BDE8F08F47F00307D8E7019B9B00DBB2A5
:10274C00019326464FF00B0B4FF0080AA9E7002126
:10275C00304601F073FD064620B1A0F180061C4BFB
:10276C0033441E7C47F00207AAE731461948FFF7AD
:10277C00F0F90028A6D1A6F141039BB2192B04D87D
:10278C00019B43F0020301939FE7A6F161039BB207
:10279C00192B9AD8019B43F001030193203EB6B24A
:1027AC0093E705221A70A6E7019B9B00DBB201930D
:1027BC00A4E747F01007B4E747F00807B3E7062093
:1027CC00B5E70620B3E70620B1E700BFAC5F000811
:1027DC00145A0008B85F00082DE9F84380460E46ED
:1027EC000D7825F04005013D05EB450305EB830510
:1027FC000127002410E001F03DFD0746FE2D24D8F2
:10280C0005F1010938F8150001F034FDB8421ED16C
:10281C004D4601340C2C0ED8114B1B5D5A1CB25C6E
:10282C00F05C40EA0220002FE5D14FF6FF7398428E
:10283C00EFD000200EE0337813F0400F09D05FB1D9
:10284C0038F8153053B9012004E0002002E00020D4
:10285C0000E00120BDE8F8830120FBE70020F9E748
:10286C00145A00080239D0F81434023B8B4206D9B2
:10287C0090F80234D0F8280401FB030070470020C4
:10288C007047012978D9F8B5D0F814348B4275D932
:10289C000C46054690F80034022B35D0032B4BD058
:1028AC00012B01D001206AE001EB5106D0F8201475
:1028BC00B0F80A34B6FBF3F31944FFF7A6FB002873
:1028CC005ED1771CB5F80A34B6FBF3F203FB126643
:1028DC00AE5DD5F82014B7FBF3F319442846FFF787
:1028EC0094FB00284FD1B5F80A24B7FBF2F302FB96
:1028FC001377E85D46EA002014F0010F01D00009BF
:10290C003DE0C0F30B003AE0D0F82014B0F80A34E4
:10291C005B08B4FBF3F31944FFF777FBB0BB610022
:10292C00B5F80A24B1FBF2F302FB13116B185B78B8
:10293C00685C40EA032022E0D0F82014B0F80A3496
:10294C009B08B4FBF3F31944FFF75FFB08BBA10032
:10295C00B5F80A34B1FBF3F403FB14116B18DA78F5
:10296C009878000440EA02605B7840EA03206B5CD4
:10297C00184320F0704002E0012070470120F8BDA0
:10298C004FF0FF30FBE74FF0FF30F8E74FF0FF3030
:10299C00F5E74FF0FF30F2E7F8B50546A0F806145E
:1029AC00D0F80844012C52D00E46D0F80034D3F89D
:1029BC001424A2424DD91CB993F80024032A21D027
:1029CC001CBBB3F80824B24245D9D3F82404C5F88B
:1029DC000C44002847D0D5F80024B2F80A345B091F
:1029EC00B6FBF3F31844C5F81004B2F80A345B09CB
:1029FC00B6FBF3F103FB116602EB4612C5F8142487
:102A0C00002027E0D3F82444DAE7B3F80A747A09F3
:102A1C0093F8027407FB02F7BE4212D32146D5F895
:102A2C000004FFF72EFF0446B0F1FF3F15D001283C
:102A3C0015D9D5F80034D3F81434834211D9F61BC8
:102A4C00EAE72146D5F80004FFF70CFFBFE70220A8
:102A5C0000E00220F8BD0220FCE70120FAE702208A
:102A6C00F8E70220F6E70220F4E7012940F2A780FC
:102A7C00D0F814348B4240F2A4802DE9F041164674
:102A8C000D46044690F80034022B51D0032B6CD029
:102A9C00012B03D002231846BDE8F08101EB51074E
:102AAC00D0F82014B0F80A34B7FBF3F31944FFF74D
:102ABC00ACFA03460028EED107F10108B4F80A3449
:102ACC00B7FBF3F203FB127715F0010525D0E257A3
:102ADC0002F00F02310101F47F610A43D2B2E255D8
:102AEC00012284F80424D4F82014B8FBF3F319441D
:102AFC002046FFF78AFA03460028CCD1B4F80A1412
:102B0C00B8FBF1F201FB12884DB1C6F3071204F8C1
:102B1C000820012284F80424BDE7F2B2DFE714F99F
:102B2C00082022F00F02C6F303263243D2B2EEE79E
:102B3C00D0F82014B0F80A345B08B5FBF3F3194451
:102B4C00FFF763FA03460028A5D16900B4F80A041C
:102B5C00B1FBF0F200FB121160186654C6F30722A9
:102B6C004270012284F8042495E7D0F82014B0F8C0
:102B7C000A349B08B5FBF3F31944FFF746FA0346F6
:102B8C00002888D1A900B4F80A24B1FBF2F502FBA5
:102B9C0015116018C5788278120442EA056202F0B9
:102BAC00704232436254C2F307214170C2F30741B1
:102BBC008170120EC270012284F804246BE7022388
:102BCC0000E0022318467047F8B505460F4641B998
:102BDC00D0F80C649EB1D0F81434B34210D801264E
:102BEC000EE0FFF74EFE034601284BD9B0F1FF3F34
:102BFC004DD0D5F81424824249D83E4600E0012637
:102C0C0034460CE021462846FFF73BFE034678B1DC
:102C1C00B0F1FF3F3BD0012839D0B44236D001345B
:102C2C00D5F81434A342EDD8012E2DD90224E9E7AE
:102C3C006FF0704221462846FFF717FF034600B994
:102C4C0097B9C3B9C5F80C44D5F81034B3F1FF3FAC
:102C5C001FD0013BC5F8103495F8053443F001033F
:102C6C0085F80534234612E0224639462846FFF7FC
:102C7C00FCFE0346E5E7012B01D0012307E04FF0F2
:102C8C00FF3304E0012302E0002300E00023184698
:102C9C00F8BD2346FBE72DE9F843B0F80664751C34
:102CAC00ABB2002B00F09480D0F81024002A00F076
:102CBC0091800F460446D0F80004B0F80A345B0942
:102CCC00B5FBF3F103FB11534BB90132C4F81024DB
:102CDC00D4F80C14B1B9B0F80834AB427CD9731CDD
:102CEC00A4F80634D4F80034B3F80A245209B5FB1E
:102CFC00F2F102FB115503EB4513C4F81434002018
:102D0C00BDE8F883B0F80A345B09B5FBF3F390F82F
:102D1C00028408F1FF3813EA0808E0D1FFF7B1FD8F
:102D2C00814601285AD9B0F1FF3F59D0D4F800049C
:102D3C00D0F814344B4541D8002F53D0D4F80C1490
:102D4C00FFF742FF814600284ED001284ED0B0F14B
:102D5C00FF3F4DD0D4F80004FFF725F908B101204E
:102D6C00CEE7D4F80004B0F80A240021FEF7D8FE10
:102D7C00D4F8007449463846FFF774FDC7F82C04A4
:102D8C00D4F8003493F80224424511D9012283F877
:102D9C000424D4F80004FFF706F958BBD4F8002437
:102DAC00D2F82C340133C2F82C3408F10108E7E7CF
:102DBC00D3F82C24A2EB0802C3F82C24C4F80C94EE
:102DCC004946D4F80004FFF74DFDC4F8100486E71B
:102DDC00042095E7042093E7042091E702208FE775
:102DEC0001208DE704208BE7072089E7022087E785
:102DFC00012085E7012083E72DE9F04104460021FD
:102E0C00FFF7CAFD0646002867D14FF6FF73A4F8FA
:102E1C0024344FF0FF0847460BE04FF6FF73A4F83D
:102E2C002434FF2700212046FFF735FF06460028F3
:102E3C0053D1D4F81014D4F80004FFF7E6F8064682
:102E4C0000284AD1D4F814542B78002B44D0EA7AB9
:102E5C0002F03F01E52BE0D012F0080F01D00F2952
:102E6C00DBD10F2916D027B92846FFF765F8404566
:102E7C0033D0D4F81814CB7A13F0010F04D10B22F1
:102E8C002846FEF755FE40B34FF6FF73A4F82434E2
:102E9C00FF27C7E7D4F820040028C3D013F0400F55
:102EAC0008D095F80D8003F0BF03B4F80624A4F8FD
:102EBC0024241F46BB4201D0FF27B3E76B7B43455D
:102ECC0001D0FF27AEE72946FFF786FC10B1013F82
:102EDC00FFB2A7E7FF27A5E704263046BDE8F0813F
:102EEC0010B582B0044601910B782F2B01D05C2BCE
:102EFC0001D1013101910023C4F80834019B1B78E6
:102F0C001F2B1DD901A92046FFF754FB0346F8B926
:102F1C002046FFF771FFD4F81834DA7A0346D0B99B
:102F2C0012F0040F14D1D4F81414CB7A13F0100F40
:102F3C0018D0D4F80004FEF728FFC4F80804E1E721
:102F4C0000212046FFF728FD03460022C4F8142474
:102F5C00184602B010BD0428FAD112F0040FF7D1B4
:102F6C000523F5E70523F3E770B504460E4600216B
:102F7C00FFF712FD0346D8B9002508E00135B5422C
:102F8C0016D001212046FFF786FE034680B9D4F8FF
:102F9C001014D4F80004FFF738F8034640B9D4F8FD
:102FAC0014241278E52AE9D0002AE7D00025E8E7B6
:102FBC00042B01D0184670BD0723FBE72DE9F04127
:102FCC0084B00546D0F81884D0F820740C22414601
:102FDC0001A8FEF79BFD9DF80F3013F0010F1ED0DA
:102FEC00002388F80B30C5F820340124632C0CD84E
:102FFC0023463A4601A94046FEF74EFF2846FFF706
:10300C00FBFE064608B90134F0E7642C7BD0042E95
:10301C0015D19DF80F3088F80B30C5F820749DF849
:10302C000F3013F0020F1AD1012421462846FFF766
:10303C009BFF064608B9013C13D1002E3FD0304609
:10304C0004B0BDE8F081013337F81320002AFAD11F
:10305C0003F119042D4BA3FB0434A408E5E700236A
:10306C00F2E7B5F80614091B2846FFF795FC06464F
:10307C000028E2D1D5F81804FEF75EFF0746D5F814
:10308C001014D5F80004FEF7C0FF06460028D4D172
:10309C003B46E2B2D5F81414D5F82004FEF7CAFE6C
:1030AC00D5F80034012283F8042400212846FFF7C8
:1030BC00F2FD06460028C0D1013CE0D1BDE7D5F8B1
:1030CC001014D5F80004FEF7A0FF06460028B6D170
:1030DC0020220021D5F81404FEF722FD0B22D5F88E
:1030EC001814D5F81404FEF711FDD5F81834DB7A52
:1030FC00D5F8142403F018031373D5F80034012207
:10310C0083F804249BE7072699E700BF4FECC44ED5
:10311C002DE9F04104460F464FF0FF0846460425C2
:10312C0032E00F2A1CD113F0400F08D091F80D801B
:10313C0003F0BF03B4F80624A4F824241E46B342BB
:10314C0001D0FF261AE04B7B434501D0FF2615E04A
:10315C00D4F82004FEF734FEA0B3013EF6B20DE025
:10316C0026B90846FEF7E8FE40452ED04FF6FF7311
:10317C00A4F8243429E0FF2600E0FF260021204695
:10318C00FFF789FD054600BBD4F81014E9B1D4F85B
:10319C000004FEF73AFF0546B8B9D4F814140B78BE
:1031AC0093B1CA7A02F03F02E52BE4D02E2BE4D087
:1031BC0022F02000082814BF00200120B842B0D013
:1031CC00FF26DBE7FF26D9E7042515B10023C4F859
:1031DC0010342846BDE8F08170B50446B0F806649A
:1031EC003146B0F824344FF6FF72934200D01946A2
:1031FC002046FFF7D1FB054618BBD4F81014D4F8C1
:10320C000004FEF702FF0546C8B920220021D4F8BD
:10321C001404FEF785FCD4F81434E5221A70D4F8A3
:10322C000034012283F80424B4F806349E4206D9F3
:10323C0000212046FFF72FFD05460028DDD0042D88
:10324C0001D0284670BD0225FBE7F8B501292DD920
:10325C0004460D46D0F814348B4229D9002709E0D6
:10326C000133C4F8103494F8053443F0010384F8A6
:10327C0005343546D4F81434AB421AD929462046C5
:10328C00FFF7FFFA0646A0B1012814D0B0F1FF3FBA
:10329C0013D0002229462046FFF7E7FB074640B92A
:1032AC00D4F81034B3F1FF3FDAD1E2E7022700E0A3
:1032BC0002273846F8BD0227FBE70127F9E7000093
:1032CC0070B584B001900091154604A840F8041D17
:1032DC00FEF740FE041E1FDB114B03EB84039E69BB
:1032EC002EB13046FEF720FD002386F80034019BFA
:1032FC0013B1002283F80024094800EB8400836199
:10330C0063B1012D02D0002004B070BD00226946CB
:10331C0001A8FEF701FFF7E70B20F5E70020F3E724
:10332C00A80000202DE9F043ADF2444D0191002896
:10333C0000F0E280044615460023C0F8003402F089
:10334C001F0802F01E0201A90DF58360FEF7E4FED2
:10335C00064620B130460DF2444DBDE8F08303AB78
:10336C00CDF83034664BCDF83834019906A8FFF708
:10337C00B7FDDDF82C74064650B9002F5BD038F041
:10338C00010314BF0121002106A8FEF7EBFB064642
:10339C0015F01C0F00F09D80002E58D0042E4CD040
:1033AC0048F00808DDF82C7416B918F0080F59D13C
:1033BC00CEB918F0080F01D048F02008DDF8183409
:1033CC00D3F82C34C4F81C34C4F8207438F001033E
:1033DC0014BF0121002106A8FEF71CFCC4F8280428
:1033EC00002800F08B80002EB4D184F806840025D0
:1033FC0084F80754DDF8188439464046FEF7C5FCBE
:10340C00C4F81004FA7FBB7F1B0443EA02637A7F83
:10341C0043EA02233A7F1343C4F80C34C4F808542B
:10342C00C4F81854C4F82454C4F80084B8F806340A
:10343C00A4F804348EE70626AAE7FEF7D9FB08B9F0
:10344C001226ADE706A8FFF7B9FD0646A8E7FB7AFA
:10345C0013F0110F04D115F0040FA5D00826A3E723
:10346C000726A1E700F028FFB873C0F30723FB730E
:10347C00C0F307433B74000E78740025FD723D7752
:10348C007D77BD77FD773946DDF81804FEF77DFCB6
:10349C00814629463846FEF789FCDDF818040123DD
:1034AC0080F80434B9F1000F82D0D0F82C5449467E
:1034BC00FFF7CBFE064600287FF47AAFDDF8180440
:1034CC0009F1FF33C0F80C342946FEF79EFD064681
:1034DC006EE7002E7FF46CAFFB7A13F0100F09D15E
:1034EC0015F0020F3FF464AF13F0010F3FF460AF1F
:1034FC0007265DE704265BE709262BE7022629E76A
:10350C00C80000202DE9F04F83B0044688461546CC
:10351C001F4600233B60FEF7DDFD0190002840F0C4
:10352C00E88094F80734002B40F0E28094F80634DD
:10353C0013F0010F00F0E180D4F80C64D4F80834D7
:10354C00F61AAE427CD32E467AE0D4F824341BB162
:10355C002046FEF703FC8EE0D4F81414FFF791F923
:10356C0089E0022384F807340193C2E0012384F834
:10357C0007340193BDE0022384F807340193B8E0CB
:10358C0094F8063413F0400F05D0D4F81804A0EBCF
:10359C000A0ACA4506D3D4F80034B3F80A3409FB36
:1035AC0003F942E0D4F80034B3F80A040246214689
:1035BC0000FB0A80FEF7AAFAEDE7D4F8182452456E
:1035CC001DD094F8063413F0400F0DD00123214682
:1035DC009BF80104FEF782FA00287FD194F8063498
:1035EC0023F0400384F80634D4F800040123524637
:1035FC00214690F80104FEF765FA002873D1C4F84F
:10360C0018A4D4F80034B3F80A94D4F80834B3FBF3
:10361C00F9F109FB1131A9EB01094E4500D2B14674
:10362C004A4621444046FEF771FAC844D4F808349F
:10363C004B44C4F808343B684B443B60A6EB09068A
:10364C00002E56D0D4F80814D4F80004B0F80A545C
:10365C00B1FBF5F305FB1313002BD2D1B1FBF5F540
:10366C0090F80234013BDBB21D400DD100297FF4F0
:10367C006CAFD4F8100401287FF673AFB0F1FF3FA4
:10368C003FF474AFC4F81404D4F800B4D4F8141490
:10369C005846FFF7E7F8824600283FF46CAFAA447F
:1036AC00BBF80A94B6FBF9F9B9F1000F85D005EB1C
:1036BC0009039BF80224934201D9A2EB05094B465E
:1036CC00524641469BF80104FEF7FCF900283FF4F2
:1036DC0057AF012384F8073401930AE0012384F8DF
:1036EC000734019305E0012384F80734019300E0CB
:1036FC000193019803B0BDE8F08F07230193F8E71D
:10370C002DE9F04F83B004460F4616469846002329
:10371C00C8F80030FEF7DEFC0190002840F0118163
:10372C0094F80734002B40F00B8194F8063413F016
:10373C00020F00F00A81D4F80834F342C0F0C180C3
:10374C000026BEE0D4F82434002B3DD02046FEF7F2
:10375C0005FB002800F0E58001283BD0B0F1FF3FCD
:10376C003DD0C4F81404D4F810340BB9C4F81004C8
:10377C0094F8063413F0400F36D1D4F800B4D4F8D2
:10378C0014145846FFF76EF88246002843D0AA441A
:10379C00BBF80A94B6FBF9F9B9F1000F5ED005EB52
:1037AC0009039BF80224934201D9A2EB05094B466D
:1037BC00524639469BF80104FEF790F980B3012379
:1037CC0084F807340193BCE0D4F814141046FFF7C6
:1037DC00FBF9BEE7022384F807340193B1E001231F
:1037EC0084F807340193ACE0D4F800040123D4F836
:1037FC001824214690F80104FEF770F930B994F8BA
:10380C00063423F0400384F80634B6E7012384F829
:10381C000734019395E0022384F80734019390E078
:10382C00D4F81814A1EB0A0ACA4506D3D4F800340C
:10383C00B3F80A3409FB03F936E0D4F80034B3F8D2
:10384C000A140A4601FB0A712046FEF75FF994F848
:10385C00063423F0400384F80634E7E7D4F8183430
:10386C00534505D0D4F80824D4F80C349A424AD3E2
:10387C00C4F818A4D4F80034B3F80A94D4F8083473
:10388C00B3FBF9F009FB1030A9EB00094E4500D24F
:10389C00B1464A4639462044FEF738F994F80634C6
:1038AC0043F0400384F806344F44D4F808344B44B6
:1038BC00C4F80834D8F800304B44C8F80030A6EBF4
:1038CC00090676B3D4F80814D4F80024B2F80A54D4
:1038DC00B1FBF5F305FB1313002BCBD1B1FBF5F5C5
:1038EC0092F80234013BDBB21D407FF441AF00295A
:1038FC007FF428AFD4F8100400287FF42AAF1046C8
:10390C00FFF762F925E70123524621469BF8010493
:10391C00FEF7D8F80028ABD0012384F807340193C4
:10392C000FE0D4F80834D4F80C24934201D9C4F82D
:10393C000C3494F8063443F0200384F8063400E089
:10394C000193019803B0BDE8F08F07230193F8E7CA
:10395C0070B582B004460D460A290DD06368002B61
:10396C0008DB5E1C23441D733C2E09DC6660A368D7
:10397C000133A36002B070BD0D21FFF7E9FFEDE745
:10398C0001AB324604F10C012068FFF7B9FE019B34
:10399C009E4202D04FF0FF36E8E70026E6E738B546
:1039AC000446FEF797FB034608BB94F8062412F076
:1039BC00200F1CD012F0400F11D0D4F800040123BA
:1039CC00D4F81824214690F80104FEF787F8002853
:1039DC0046D194F8063423F0400384F80634D4F826
:1039EC001C14D4F80004FEF710FB034608B118466B
:1039FC0038BDD4F82054EB7A43F02003EB7294F8E2
:103A0C000C342B77B4F80C341B0A6B7794F80E3407
:103A1C00AB7794F80F34EB77D4F810142846FEF7F4
:103A2C00C5F900F049FCA875C0F30723EB75C0F38A
:103A3C0007432B76000E68760023AB74EB7494F876
:103A4C00063423F0200384F80634D4F80034012221
:103A5C0083F80424D4F80004FEF74AFD0346C6E7B5
:103A6C000123C4E710B50446FFF799FF034608B1DC
:103A7C00184610BD2046FEF72DFB03460028F7D153
:103A8C00D4F82804FEF72EF903460028F0D10022C2
:103A9C00C4F80024ECE72DE9F84F04460D46FEF778
:103AAC0019FB0646002840F08A8194F80734002B55
:103ABC0040F08481D4F82434002B00F0A180B5F1BF
:103ACC00FF3F4FD0D4F80C74AF4200D32F46C4F84C
:103ADC000874002F00F073817D1E29462046FEF7E6
:103AEC003DF90146C4F81404D4F800844046FEF7AE
:103AFC00B9FE002879D0B8F80A24B5FBF2F598F88D
:103B0C000234013B1D400544B7FBF2F302FB137773
:103B1C00002F00F05481D4F81824AA4200F04F81F1
:103B2C0094F8063413F0400F0DD00123214698F879
:103B3C000104FDF7D3FF00285BD194F8063423F081
:103B4C00400384F80634D4F8000401232A462146A5
:103B5C0090F80104FDF7B6FF00284ED0012684F83A
:103B6C0007642CE103F1040BD3F800A0D4F81094F3
:103B7C00B9F1000F2CD04FF0020808F102084D46A5
:103B8C00002701372946D4F80004FEF77AFE0128F5
:103B9C0016D9B0F1FF3F17D06B1C05468342F0D00D
:103BAC00C24505D35B4643F8087BCBF804909B4693
:103BBC00D4F80034D3F8143483420BD98146DCE7B3
:103BCC00022684F80764FAE0012684F80764F6E01C
:103BDC004FF00208D4F82434C3F80080D04500F22A
:103BEC00F1800023CBF80030E9E0022684F807646A
:103BFC00E5E0012684F80764E1E0C4F81854DEE03F
:103C0C00D4F80C34AB4205D294F8062412F0020F0F
:103C1C0000D11D46D4F808340022C4F808241DB382
:103C2C00D4F8000490F80224B0F80A8408FB02F8D7
:103C3C0083B16A1EB2FBF8F2013BB3FBF8F18A4286
:103C4C0008D3C8F100071F40C4F80874EF1BD4F860
:103C5C00145407E0D4F81034002B44D0C4F81434B6
:103C6C002F461D46002D6CD1D4F80814D4F800044E
:103C7C00B0F80A24B1FBF2F302FB131323B3D4F80C
:103C8C001824AA4220D094F8063413F0400F0ED01A
:103C9C000123214690F80104FDF720FF002840F095
:103CAC00858094F8063423F0400384F80634D4F865
:103CBC00000401232A46214690F80104FDF702FF77
:103CCC00002877D1C4F81854D4F80834D4F80C244C
:103CDC00934274D9C4F80C3494F8063443F020039E
:103CEC0084F806346BE00021FEF76EFF03460128D2
:103CFC0005D0B0F1FF3F06D0C4F81004AEE70226A1
:103D0C0084F807645BE0012684F8076457E02946D1
:103D1C00D4F80004FEF7B5FD0546B5F1FF3F37D0EA
:103D2C00012D39D9D4F80034D3F81434AB4233D93B
:103D3C00C4F81454D4F808344344C4F80834A7EB3A
:103D4C00080747450DD994F8063413F0020FDED05E
:103D5C002946D4F80004FEF737FF05460028DCD1CD
:103D6C004746D4F808343B44C4F80834D4F800046B
:103D7C00B0F80A84B7FBF8F308FB1373A3B1294618
:103D8C00FEF770FD054658B1B7FBF8F73D446BE7FD
:103D9C00012684F8076412E0022684F807640EE01A
:103DAC00022684F807640AE000255DE7012684F802
:103DBC00076404E0012684F8076400E01E463046E0
:103DCC00BDE8F88F1126FAE72DE9F04782B002AB77
:103DDC0043F8040D89461446002219462046FEF786
:103DEC009BF925680746002867D1D5F81034D5F81B
:103DFC001444A21E93420AD995F80084B8F1010F1D
:103E0C0008D0D5F8201400221046164632E0C9F826
:103E1C00003052E00224002604E00134D5F81434BA
:103E2C00A34240D921462846FEF72BFDB0F1FF3FB7
:103E3C0038D0012845D00028EFD10136EDE701F14B
:103E4C00010A2846FEF7E1F8074660BB2A46B5F89A
:103E5C000A04514610E092F801C0137843EA0C238F
:103E6C001BB203B901360232023801E004320438C5
:103E7C00013C18D00028E2D0B8F1020FEBD092F838
:103E8C0003C093781B0443EA0C6392F801C043EA25
:103E9C000C2392F800C043EA0C0333F07043E5D1D5
:103EAC000136E3E70127C5F8106495F8053443F0B3
:103EBC00010385F80534C9F80060384602B0BDE846
:103ECC00F0870227EFE7000070B5ADF6680D0190A2
:103EDC00012201A90DF50460FEF71EF9044618B184
:103EEC0020460DF6680D70BD03ABCDF858382C4B41
:103EFC00CDF8603801990DF58860FEF7F1FF0446A6
:103F0C0028B902210DF58860FDF72CFE0446002C23
:103F1C00E6D1DDF8541821B3CD7A15F0010F23D179
:103F2C00DDF84008FDF731FF0646F8B115F0100F2B
:103F3C001CD04FF485620DF5886106A8FDF7E6FDEF
:103F4C00CDF82064022106A8FEF726FD044668B9C8
:103F5C00002106A8FFF7DCF80446C0B1042805D1FF
:103F6C0006E00026062401E000260724002CB7D129
:103F7C000DF58860FFF730F9044600B94EB9002CF6
:103F8C00AED1DDF84008FEF7B3FA0446A8E70724E3
:103F9C00ECE73146DDF84008FFF757F90446EEE749
:103FAC00C80000202DE9F04FADF2444D019000F017
:103FBC0083F90546012201A90DF58360FEF7ACF8E3
:103FCC00044620B120460DF2444DBDE8F08F03AB02
:103FDC00CDF83034594BCDF83834019906A8FEF79A
:103FEC007FFF002800F0A880042801D00446E9E7F0
:103FFC000021DDF81804FEF7E7FD804600B9072420
:10400C00B8F1010F23D0B8F1FF3F28D00CB344B363
:10401C00002C00F08680002C40F08880DDF82C0409
:10402C001023C3728575C5F30723C375C5F3074306
:10403C0003762D0E45764146FDF7B8FEDDF81804E3
:10404C00012380F80434FEF753FA0446BAE702243D
:10405C00D9E7DDF81804FDF7A6FF0446D7E70124DD
:10406C00D5E7DDF8186441463046FEF7FBFB074602
:10407C00B146B6F80A2400213046FDF751FD0B225B
:10408C0020213046FDF74CFD4FF02E0B86F800B08A
:10409C001023F372B575C5F30723F375C5F3074306
:1040AC0033762B0E737641463046FDF77FFE06F1D4
:1040BC00200A202231465046FDF728FD86F821B013
:1040CC00DDF82014DDF8183493F80024032A22D0EC
:1040DC005046FDF76BFEDDF8183493F80264002EA1
:1040EC0096D007F1010ADDF81804C0F82C740123EE
:1040FC0080F80434FDF757FF0446002888D1DDF81A
:10410C001834B3F80A2400214846FDF709FD013E96
:10411C00F6B25746E3E7D3F824348B42D8D10021CA
:10412C00D6E706A8FEF74AFF044674E74146DDF8D9
:10413C001804FFF78AF845E7082443E7C800002075
:10414C002DE9F04182B080460E4617460446002504
:10415C0001E022461446731EAB4212DD6B4601226F
:10416C0001A93846FFF7CEF9009B012B09D19DF828
:10417C0004300D2BEDD0621C237001350A2BE9D1D4
:10418C001446002323701DB1404602B0BDE8F081F7
:10419C000020FAE710B594B0044601910023029375
:1041AC00039303E0013401A8FFF7D2FB2178002927
:1041BC00F8D1029A002A0CDB6B4604A90198FFF790
:1041CC009FFA48B9029A009B9A4208D1039814B0FE
:1041DC0010BD4FF0FF30FAE74FF0FF30F7E74FF02C
:1041EC00FF30F4E7114B5B7ADBB2012B01D90120D4
:1041FC00704730B40D4C657AEDB200236355657A87
:10420C0004EB85056860607A20440272627AD2B24F
:10421C00501CC0B2607230320A703A224A702F229F
:10422C008A70CB70184630BC704700BFC8020020A3
:10423C0008B50022FFF7D6FF08BD00007F2816D96D
:10424C0031B1FF2812D88038094B33F81000704771
:10425C0000237F2B07D8064A32F81320824202D063
:10426C0001339BB2F5E78033D8B27047002070471A
:10427C00D45A0008002200E00132074B03EB420342
:10428C00B3F800310BB18342F6D123B1024B03EBEF
:10429C004202B2F8E0027047D45A000808B503494C
:1042AC000348FFF7C5FF034B187008BDF40300204B
:1042BC0010000020F803002000207047014B002262
:1042CC001A707047D4020020014B1878704700BF59
:1042DC00D402002008B50A46054B1B689B6813F0F6
:1042EC00020FF9D0642301460148FDF7CCF808BD54
:1042FC008811002000B583B08DF80700074B1B68B0
:10430C009B6813F0020FF9D0642301220DF1070111
:10431C000248FDF7B8F803B05DF804FB88110020E3
:10432C0008B5002201210348FCF7A0FC0120FCF792
:10433C0045FB08BD000C014008B50122114603489D
:10434C00FCF794FC0120FCF739FB08BD000C014084
:10435C0000B585B0FF238DF80F300A4B1B689B68A6
:10436C0013F0020FF9D06423009301230DF10E0218
:10437C000DF10F010348FDF758F99DF80E0005B03B
:10438C005DF804FB8811002010B582B0FFF7D4FF54
:10439C00002403E0FF20FFF7ADFF0134092CF9DD09
:1043AC00FFF7BEFF40238DF8003000238DF801305D
:1043BC008DF802308DF803308DF8043095238DF88C
:1043CC00053006216846FFF785FF41F6FF74FFF7BD
:1043DC00BFFF012802D00CB1013CF8E7FFF7ACFF9E
:1043EC00FF20FFF787FF024B01221A7002B010BDAD
:1043FC00D402002008B5074B4FF4FA721A80FFF76D
:10440C00A7FFFF2804D0034B1B889BB2002BF6D1CF
:10441C0008BD00BF1016002038B505460C46FFF746
:10442C00E9FFFF2801D0FF2038BD2846FFF762FFC7
:10443C00200EFFF75FFFC4F30740FFF75BFFC4F3E9
:10444C000720FFF757FFE0B2FFF754FF402D13D0C2
:10445C00482D0FD00120FFF74DFF4C2D0ED00A2414
:10446C00FFF776FF10F0800FDED0631E13F0FF0411
:10447C00F6D1D9E78720EEE79520ECE7FFF768FF48
:10448C00EDE710B50446FFF763FF207010BD000088
:10449C0070B504460D460F4BC8221A80FFF758FF23
:1044AC00FF2804D10B4B1B889BB2002BF6D1FE28A6
:1044BC0002D0002070BD1D46661C2046FFF7E1FFB0
:1044CC006B1E3446002DF6D1FFF742FFFFF740FF7D
:1044DC000120EFE71216002070B506460C46FFF7D8
:1044EC0089FFFF2801D0002070BD2046FFF702FF96
:1044FC00FD2C05D105F01F05052D1CD00020F3E780
:10450C004FF400713046FFF7E5FEFFF721FFFFF790
:10451C001FFF0024402C09D8FFF71AFF054600F0B6
:10452C001F03052B02D00134E4B2F3E7FFF710FFB1
:10453C000028FBD0DEE70120D6E70000002840F081
:10454C00BD805F4B1B7813F0020F03D05C4B1878C7
:10455C00C0B2704710B582B0FFF716FFFFF7E0FE50
:10456C0000214020FFF758FF012813D00024554BA1
:10457C005C70FFF7E1FEFFF7EBFE002C00F09B8078
:10458C004F4A137803F0FE0313704D4B1878C0B2EA
:10459C0002B010BD4C4B4FF47A721A804FF4D571A7
:1045AC004820FFF739FF012848D1002407E0FFF726
:1045BC00CFFE02AB234403F8040C0134E4B2032C09
:1045CC00F5D99DF80630012B01D00024CFE79DF8DA
:1045DC000730AA2B05D00024C9E73B4B1B889BB2A4
:1045EC0063B100217720FFF717FF0128F5D84FF0B2
:1045FC0080416920FFF710FF0028EED1324B1B8859
:10460C009BB20BB90024B2E700217A20FFF704FF1C
:10461C0090B10024ABE7FFF79BFE02AB234403F8F9
:10462C00040C0134E4B2032CF5D99DF8043013F0DA
:10463C00400F3ED00C249AE70024F4E700217720A9
:10464C00FFF7EAFE012801D9012413E000216920BB
:10465C00FFF7E2FE012801D901240BE0022409E056
:10466C0000217720FFF7D8FE012811D9164B1B88A3
:10467C009BB23BB1022CF3D000214120FFF7CCFEC2
:10468C000028F3D1104B1B889BB243B900246EE772
:10469C0000216920FFF7C0FE0028E7D1F2E74FF4B4
:1046AC0000715020FFF7B8FE00283FF460AF0024E3
:1046BC005DE704245BE7FFF701FE66E70120704726
:1046CC0008000020D40200201216002018B9034B59
:1046DC001878C0B270470120704700BF0800002056
:1046EC0000283ED170B50D4616461C46002B3AD01C
:1046FC001F4B1B7813F0010F37D11E4B5B7813F057
:10470C00040F00D15602FFF70BFE012C1AD03146D4
:10471C005220FFF781FE68B94FF400712846FFF76D
:10472C00B7FE18B105F50075013CF5D100214C2000
:10473C00FFF772FEFFF700FEFFF70AFE201C18BF02
:10474C00012070BD31465120FFF766FE0028F1D1E3
:10475C004FF400712846FFF79BFE0028EAD0002496
:10476C00E8E7042070470420EBE70320E9E700BFEB
:10477C0008000020D4020020002852D170B50D464C
:10478C0016461C46002B4ED02A4B1B7813F0010FFB
:10479C004BD1284B1B7813F0040F48D1264B5B7878
:1047AC0013F0040F00D15602FFF7BAFD012C1FD0F5
:1047BC00214B5B7813F0020F28D131465920FFF7BB
:1047CC002BFE68B9FC212846FFF786FE18B105F5CB
:1047DC000075013CF6D1FD210020FFF77DFEF0B104
:1047EC00FFF7AAFDFFF7B4FD201C18BF012070BD18
:1047FC0031465820FFF710FE0028F1D1FE21284643
:10480C00FFF76AFE0028EBD00024E9E700217720AF
:10481C00FFF702FE21465720FFF7FEFDCDE70124EE
:10482C00DEE7042070470420E1E70320DFE70220E5
:10483C00DDE700BF08000020D402002070B584B072
:10484C00002840F0B6800C461546052913D05C4B69
:10485C001B7813F0010F40F0B080FFF761FD0D2CB9
:10486C0000F29D80DFE804F0651C5C9B9B9B9B9B8E
:10487C009B9B9B6B79871378012B08D01BB1022B68
:10488C0009D0042496E0FFF719FD002492E0FFF70D
:10489C007BFD00248EE0FFF717FD6870002489E093
:1048AC0000214920FFF7B8FD08B101243CE010219C
:1048BC006846FFF7EDFD002873D09DF800309B098A
:1048CC00012B20D09DF8052002F00F029DF80A3034
:1048DC0002EBD3129DF809305B0003F006031A4477
:1048EC009DF808309DF807109B0903EB81039DF898
:1048FC000610890201F440610B440133073A9340DE
:10490C002B60002410E09DF809309DF8082003EB83
:10491C0002239BB201339BB29B022B60002403E069
:10492C004FF400732B800024FFF706FDFFF710FDFA
:10493C0040E0FFF75FFDFF2835D00124F4E70021AC
:10494C004920FFF769FD08B10124EDE71021284645
:10495C00FFF79EFD48BB0124E6E700214A20FFF744
:10496C005BFD08B10124DFE710212846FFF790FD1D
:10497C00E8B90124D8E700217A20FFF74DFD60B19A
:10498C000424D1E76E1CFFF7E3FC28700134E4B279
:10499C003546032CF6D90424C6E70024F9E7042491
:1049AC00C2E70124C0E70024BEE70024BCE70024D2
:1049BC00BAE70424204604B070BD0324FAE700BF14
:1049CC000800002030B589B00024049405940694A6
:1049DC000794164B9A6942F020029A619A6902F088
:1049EC0020020192019A9A6942F004029A619A6932
:1049FC0002F004020292029A9A6942F008029A6149
:104A0C009B6903F008030393039B094D2246012184
:104A1C002846FCF72BF9012304930593069407937E
:104A2C0004A92846FCF73AF809B030BD0010024042
:104A3C00000C014003780130002BFBD1014B1868AE
:104A4C00704700BFD8020020002303E0034A002176
:104A5C00D15401337F2BF9DD704700BFFC100020CF
:104A6C0010B50446FBF75AFF4FF0FF33C2B2214694
:104A7C000148FCF799FF10BDB810002008B50022C2
:104A8C0007490848FEF71CFC074B187018B9074873
:104A9C00FFF7E6FF08BD0648FFF7E2FFFAE700BFA5
:104AAC005C0C0020800C0020841100201860000891
:104ABC00F45F000870B51F4D1F4E2A4631461F4843
:104ACC00FFF782F92B68D3F81404023893F80234F8
:104ADC0003FB00F0FBF776FC0022194BFBF7ECFC18
:104AEC00FBF7FCFE0246174B1860174C1749204683
:104AFC0000F062FB2046FFF7B3FFFFF7A5FF2B6822
:104B0C0093F80234306800FB03F0FBF75BFC0022E7
:104B1C000B4BFBF7D1FCFBF7E1FE02460C4B18608C
:104B2C000C49204600F048FB2046FFF799FFFFF7A1
:104B3C008BFF70BD80110020580C00205C600008B9
:104B4C000000E03FE0110020FC1000208060000815
:104B5C00B41000209C60000870B50546194C132257
:104B6C0001462046FEF7DEFB174E307021461748F3
:104B7C00FFF710FB2046FEF775FF3070E8B1114CC3
:104B8C00012229462046FEF7CDFB0F4B1870104D25
:104B9C002246D4F80C142846FFF7D2FA0D48FFF73A
:104BAC005FFF2846FFF75CFF0B48FFF759FF2046D5
:104BBC00FEF758FFFFF748FF70BD0848FFF750FF9E
:104BCC00DDE700BFE411002084110020B86000086C
:104BDC00FC100020086100087C600008E060000800
:104BEC00F8B507460A2201462548FEF79BFB254BE4
:104BFC001870254E254C06F1200C35460FCD206043
:104C0C006160A260E3602E4610346545F5D12868DA
:104C1C002060AB88A3801D4D2846FFF70BFF184C76
:104C2C001B4B024629462046FEF76AFD154D28709F
:104C3C001848FFF715FF2046FEF714FFFFF704FF97
:104C4C00012239462046FEF76DFB287010B9124838
:104C5C00FFF706FF0A4C0D4D104BD4F80C242946D7
:104C6C002046FEF74FFC2846FFF7FAFE0C48FFF7EC
:104C7C00F7FE2046FEF7F6FEFFF7E6FEF8BD00BF96
:104C8C00E41100208411002040610008FC10002079
:104C9C007C110020686100088C610008B0100020B5
:104CAC007C60000870B506461E4C03220146204667
:104CBC00FEF738FB1C4D2870D4F80C142046FEF778
:104CCC00EAFE287030B3174C21461848FFF762FAF9
:104CDC00154D28702046FEF7C5FEFFF7B5FE0122E4
:104CEC0031462046FEF71EFB2870114BD4F80C24DD
:104CFC0010492046FEF706FC287078B10D48FFF7E6
:104D0C00AFFE0D48FFF7ACFE0648FEF7ABFEFFF713
:104D1C009BFE70BD0948FFF7A3FED4E70848FFF7D8
:104D2C009FFEEBE7E411002084110020D461000801
:104D3C00B0100020FC1000207C600008B861000856
:104D4C00FC61000808B5FFF7BFF80A4B187040B1BA
:104D5C00012209490020FEF7B3FA064B187020B166
:104D6C0008BD0648FFF77CFEF2E70548FFF778FE22
:104D7C00F6E700BF8411002044620008246200089A
:104D8C004862000838B50446FFF70CF90B4B187055
:104D9C0050B10B4D234602460A49284600F00CFA46
:104DAC002846FFF75DFE38BD054D224606492846CC
:104DBC0000F002FA2846FFF753FEF4E784110020B6
:104DCC00FC100020946200086C62000872B6FEE7CA
:104DDC0008B50D480D4B03604FF4827343600023FC
:104DEC008360C360036143614FF4007282611022DF
:104DFC00C2610362436283620A23C362FCF7E8FA6E
:104E0C0000B908BDFFF7E2FF881100200030014017
:104E1C0008B50A480A4B03604FF4E13343600023A2
:104E2C008360C36003610C2242618361C361FCF740
:104E3C008CFD00B908BDFFF7C9FF00BFB8100020FA
:104E4C000038014000B591B00023089309930B93EF
:104E5C000C930193029303930493059301220692FE
:104E6C004FF4803307930A9202220D920E934FF463
:104E7C00E0130F9306A8FBF715FF80B90F230193DE
:104E8C0002210291002303934FF480620492059354
:104E9C0001A8FCF747F920B911B05DF804FBFFF746
:104EAC0095FFFFF793FF000008B5FBF763FDFFF7D5
:104EBC00C9FFFFF787FDFFF78BFFFFF7A9FFFFF790
:104ECC00EDF94FF4FA70FBF779FDFFF7D7FDFFF71B
:104EDC00F1FD0A48FFF756FF0948FFF753FF094D4C
:104EEC002846FFF739FE084C2046FFF779FE284686
:104EFC00FFF7D8FE2046FFF725FFFEE7C06200084B
:104F0C00C8620008D0620008E062000882B00E4B54
:104F1C009A6942F001029A619A6902F001020092C8
:104F2C00009ADA6942F08052DA61DB6903F080534F
:104F3C000193019B054A536823F0E06343F000732F
:104F4C00536002B0704700BF0010024000000140E7
:104F5C0010B586B000230293039304930593026863
:104F6C00164B9A4201D006B010BD03F560439A6906
:104F7C0042F480529A619A6902F480520092009A2B
:104F8C009A6942F004029A619B6903F0040301934D
:104F9C00019BA02302930223039303230593084C44
:104FAC0002A92046FBF77AFD4023029300230393CA
:104FBC00049302A92046FBF771FDD4E700300140B1
:104FCC000008014010B586B00023029303930493AC
:104FDC0005930268174B9A4201D006B010BD03F539
:104FEC0058439A6942F480429A619A6902F4804269
:104FFC000092009A9A6942F004029A619B6903F04C
:10500C0004030193019B4FF4007302930223039357
:10501C0003230593084C02A92046FBF73FFD4FF4F0
:10502C008063029300230393049302A92046FBF7A9
:10503C0035FDD2E70038014000080140094B1B88C0
:10504C009BB223B1074A1388013B9BB21380064BDA
:10505C001B889BB223B1044A1388013B9BB213807B
:10506C00704700BF1216002010160020FEE7FEE766
:10507C00FEE7FEE7FEE770477047704708B5094A40
:10508C0013780133DBB213701378DBB2092B02D81F
:10509C00FBF782FC08BD134600221A70FFF7CEFF07
:1050AC00F6E700BFDC03002008B503460B4A126884
:1050BC0042B10A4A106803446A46934206D8074A2A
:1050CC00136008BD054A06491160F2E700F04AF882
:1050DC000C2303604FF0FF30F3E700BFE003002028
:1050EC0018160020704708B5FFF728FAC0B208BDA3
:1050FC0008B5FFF7EBFAC0B208BD08B5FFF7F0FA38
:10510C00C0B208BD08B5FFF737FBC0B208BD08B583
:10511C00FFF794FBC0B208BD0C480D490D4A0023A3
:10512C0002E0D458C4500433C4188C42F9D30A4A50
:10513C000A4C002301E013600432A242FBD3FFF7B8
:10514C00D1FF00F015F8FFF7AFFE7047000000200C
:10515C008C0000202C6300088C0000201816002006
:10516C00FEE70000014B1868704700BF28000020C4
:10517C0070B500250C4E0D4CA41BA410A54209D1F2
:10518C0000F02CFC00250A4E0A4CA41BA410A542CE
:10519C0005D170BD56F8253098470135EEE756F825
:1051AC00253098470135F2E7246300082463000892
:1051BC0024630008286300080EB46FF0004100B5AA
:1051CC009CB01DAB029006900791049108480949C8
:1051DC0053F8042B0591006802A9019300F066F8BE
:1051EC000022029B1A701CB05DF804EB03B07047F0
:1051FC00280000200802FFFF2DE9F0478E68824648
:10520C009E420C469046994637D88A8912F4906F84
:10521C0031D00223256809696F1A656905EB4505CC
:10522C0095FBF3F509F101033B449D4238BF1D4644
:10523C00530530D5294600F037FB064650B90C23F0
:10524C004FF0FF30CAF80030A38943F04003A3812C
:10525C00BDE8F0873A46216900F0B6FAA38923F439
:10526C00906343F08003A38126613E4426604E4642
:10527C006561ED1BA5604E4500D94E463246414650
:10528C00206800F0ACFAA36800209B1BA360236885
:10529C001E442660DCE72A4600F060FB0646002828
:1052AC00E2D12169504600F0B3FAC8E72DE9F04F7E
:1052BC001D468B899DB01F0680460C4616460FD5A1
:1052CC000B696BB9402100F0EFFA2060206128B91E
:1052DC000C23C8F800304FF0FF30C8E04023636166
:1052EC000023099320238DF8293030234FF0010B34
:1052FC008DF82A30039537463D4615F8013B0BB126
:10530C00252B3ED1B7EB060A0BD05346324621462D
:10531C004046FFF771FF013000F0A480099B534415
:10532C0009933B78002B00F09D8000234FF0FF3257
:10533C00CDE90523049307938DF853301A932F4628
:10534C00052217F8011B504800F030FA049BD0B925
:10535C00D90644BF20228DF853201A0744BF2B22B4
:10536C008DF853202A782A2A15D02F4600200A259A
:10537C00079A394611F8013B303B092B4DD9B8B18E
:10538C000FE02F46B8E7404A3D46801A0BFA00F072
:10539C0018430490D3E7039A111D12680391002A55
:1053AC0001DB079204E0524243F00203079204939C
:1053BC003B782E2B0CD17B782A2B33D1039B0237D5
:1053CC001A1D1B680392002BB8BF4FF0FF330593D7
:1053DC002E4D03223978284600F0E8F938B14023E5
:1053EC00401B03FA00F0049B013703430493397804
:1053FC00062227487E1C8DF8281000F0D7F90028CB
:10540C0038D0244B13BB039B073323F0070308331B
:10541C000393099B4B4409936DE705FB0232012072
:10542C000F46A6E700230A2519460137059338468F
:10543C0010F8012B303A092A03D9002BC8D005915A
:10544C00C6E705FB012101230746F0E703AB0093F8
:10545C002246114B04A94046AFF30080B0F1FF3F48
:10546C008146D6D1A3895B063FF535AF09981DB0AF
:10547C00BDE8F08F03AB00932246074B04A94046CE
:10548C0000F082F8EAE700BFF0620008F66200085C
:10549C00FA62000800000000055200082DE9F047F0
:1054AC0091461F468A680B6906469342B8BF13465D
:1054BC00C9F8003091F843200C46DDF8208012B179
:1054CC000133C9F800302368990642BFD9F800307F
:1054DC000233C9F80030256815F0060507D104F130
:1054EC00190AE368D9F800209B1AAB4229DC94F81E
:1054FC0043302268003318BF012392062ED404F1E6
:10550C00430239463046C047013021D02368E56854
:10551C0003F00603042B18BF0025D9F800204FF028
:10552C00000908BFAD1AA368226908BF25EAE57512
:10553C009342C4BF9B1AED181A344D451AD1002062
:10554C0008E00123524639463046C047013003D1AA
:10555C004FF0FF30BDE8F0870135C2E73020E1188D
:10556C0081F843005A1C94F845102244023382F807
:10557C004310C4E70123224639463046C047013068
:10558C00E6D009F10109D8E72DE9F04301F1430C0C
:10559C000C46097E85B06E291746064698460C9A2D
:1055AC0000F0B38022D8632936D00AD8002900F045
:1055BC00B980582900F0838004F1420584F8421028
:1055CC0032E0642901D06929F6D1206813680506F8
:1055DC0003F104012AD51B681160002B03DA2D227C
:1055EC005B4284F843206F480A2239E0732900F0AB
:1055FC009D8008D86F2920D07029DDD1236843F015
:10560C002003236003E0752917D07829D4D178239F
:10561C00654884F8453055E0136804F14205191DBE
:10562C001B68116084F8423001238CE01B6810F079
:10563C00400F116018BF1BB2CFE713682568181D07
:10564C001060280601D51B6802E06806FBD51B8894
:10565C006F2914BF0A2208225248002184F84310F3
:10566C006568002DA560C0F29580216821F00401C9
:10567C002160002B3DD1002D40F08E806546082A1C
:10568C000BD12368DB0708D5236962689A42DEBF19
:10569C00302305F8013C05F1FF35ACEB0503236124
:1056AC00CDF800803B4603AA21463046FFF7F6FEB4
:1056BC0001304DD14FF0FF3005B0BDE8F0833948D3
:1056CC0084F84510136821681D1D1B6815600A06B7
:1056DC000BD5CA0744BF41F0200121601BB92268D9
:1056EC0022F0200222601022B7E74D0648BF9BB281
:1056FC00EFE76546B3FBF2F102FB1133C35C05F82F
:10570C00013D0B460029F5D1B9E713682568181D32
:10571C006169106028061B6801D5196002E06A06F1
:10572C00FBD51980002365462361B9E71368191D61
:10573C0011601D6862680021284600F037F808B136
:10574C00401B606063682361002384F84330A7E743
:10575C0023692A4639463046C0470130AAD023680F
:10576C009B0713D4E068039B9842B8BF1846A3E785
:10577C0001234A4639463046C04701309AD001359C
:10578C00E368039A9B1AAB42F2DCEBE7002504F1C9
:10579C001909F5E7002BACD1037804F1420584F824
:1057AC0042306CE7016300081263000810B5C9B2FF
:1057BC0002449042034601D1002303E01C780130DF
:1057CC008C42F6D1184610BD10B5431E0A449142C6
:1057DC0000D110BD11F8014B03F8014FF7E78842D7
:1057EC0010B501EB020307D8421E99420AD011F8FA
:1057FC00014B02F8014FF8E78342F5D98118D21A10
:10580C00D34200D110BD13F8014D01F8014DF7E75B
:10581C0038B50546002943D051F8043C0C1F002B29
:10582C00B8BFE41800F0D0F81E4A1368104633B91C
:10583C00636014602846BDE8384000F0C6B8A34247
:10584C000BD921686218934201BF1A685B68521821
:10585C00226063600460EDE713465A680AB1A24205
:10586C00FAD919685818A0420BD12068014458186D
:10587C0082421960DED110685268014419605A6086
:10588C00D8E702D90C232B60D4E7206821188A4270
:10589C0001BF116852680918216062605C60C9E739
:1058AC0038BD00BFE803002070B5CD1C25F0030502
:1058BC0008350C2D38BF0C25002D064601DBA942FE
:1058CC0003D90C233360002070BD00F07DF8214A11
:1058DC001468214691B9204C23681BB9304600F05E
:1058EC0063F820602946304600F05EF8431C24D152
:1058FC000C233046336000F068F8E4E70B685B1B60
:10590C0018D40B2B0FD90B60CC18CD50304600F0AF
:10591C005CF804F10B00231D20F00700C31AD3D050
:10592C005A42E250D0E74B688C4216BF636013605A
:10593C000C46EBE70C464968CCE7C41C24F0030486
:10594C00A04205D0211A304600F02EF80130CFD0FD
:10595C002560DBE7E8030020EC030020F8B50746E0
:10596C0014460E4621B9BDE8F8401146FFF79CBF1E
:10597C0022B9FFF74DFF25462846F8BD00F026F862
:10598C00A0420FD221463846FFF78EFF054600286D
:10599C00F2D031462246FFF717FF31463846FFF763
:1059AC0037FFE9E73546E7E738B50023054C0546F0
:1059BC0008462360FFF778FB431C02D1236803B130
:1059CC002B6038BD141600207047704751F8043C0A
:1059DC00181F002BBCBF0B58C0187047F8B500BF80
:1059EC00F8BC08BC9E467047F8B500BFF8BC08BCB4
:0459FC009E4670470C
:105A000002030405060708090A0B0C0D0E0F1010FF
:105A10000102000001030507090E10121416181CDC
:105A20001E000000809A90B68EB78F80D2D3D4D853
:105A3000D7DE8E8F909292E299E3EAEB59999A9D84
:105A40009C9D9E9FB5D6E0E9A5A5A6A7A8A9AAAB4F
:105A5000AC21AEAFB0B1B2B3B4B5B6B7B8B9BABB9A
:105A6000BCBDBEBFC0C1C2C3C4C5C7C7C8C9CACBFD
:105A7000CCCDCECFD0D1D2D3D4D5D6D7D8D9DADBEE
:105A8000DCDDDEDFE0E1E2E3E5E5E6E7E7E9EAEBDE
:105A9000EDEDEEEFF0F1F2F3F4F5F6F7F8F9FAFBCD
:105AA000FCFDFEFF00040002000180004000200019
:105AB0001000080004000200000000000080004008
:105AC0000020001000080040002000100008000422
